{
  "address": "0x86d87d9a2ECcB87aAF3C87EC4768E09BFB37f640",
  "abi": [
    {
      "anonymous": false,
      "inputs": [
        {
          "indexed": true,
          "internalType": "address",
          "name": "user",
          "type": "address"
        }
      ],
      "name": "UserAuthorized",
      "type": "event"
    },
    {
      "inputs": [
        {
          "internalType": "address",
          "name": "_user",
          "type": "address"
        }
      ],
      "name": "authorizeUser",
      "outputs": [],
      "stateMutability": "nonpayable",
      "type": "function"
    },
    {
      "inputs": [
        {
          "internalType": "address",
          "name": "",
          "type": "address"
        }
      ],
      "name": "authorizedUsers",
      "outputs": [
        {
          "internalType": "bool",
          "name": "",
          "type": "bool"
        }
      ],
      "stateMutability": "view",
      "type": "function"
    },
    {
      "inputs": [
        {
          "internalType": "address",
          "name": "_user",
          "type": "address"
        }
      ],
      "name": "isUserAuthorized",
      "outputs": [
        {
          "internalType": "bool",
          "name": "",
          "type": "bool"
        }
      ],
      "stateMutability": "view",
      "type": "function"
    }
  ],
  "transactionHash": "0xb0e1569100522e43807134ec6f5e040d8ee204477269592af4b4a360e64e7387",
  "args": [],
  "numDeployments": 1,
  "solcInputHash": "bb7bc85ff8dfd589c7a69bd23c557650",
  "bytecode": "0x608060405234801561001057600080fd5b50610170806100206000396000f3fe608060405234801561001057600080fd5b50600436106100415760003560e01c80631828983a1461004657806367c2a3601461007d578063894e5f2d14610092575b600080fd5b61006961005436600461010a565b60006020819052908152604090205460ff1681565b604051901515815260200160405180910390f35b61009061008b36600461010a565b6100be565b005b6100696100a036600461010a565b6001600160a01b031660009081526020819052604090205460ff1690565b6001600160a01b038116600081815260208190526040808220805460ff19166001179055517fb0be505cf6e26533f3066ac7722c3f8a5e8a123f43187c7832d333c49603b1469190a250565b60006020828403121561011c57600080fd5b81356001600160a01b038116811461013357600080fd5b939250505056fea26469706673582212203e728f87bc8ba2939314d08fa2dadbb490d2795255254ddc3faa6afa598b0d7064736f6c63430008110033",
  "devdoc": {
    "kind": "dev",
    "methods": {},
    "version": 1
  },
  "userdoc": {
    "kind": "user",
    "methods": {},
    "version": 1
  },
  "storageLayout": {
    "storage": [
      {
        "astId": 5,
        "contract": "contracts/Auth.sol:Auth",
        "label": "authorizedUsers",
        "offset": 0,
        "slot": "0",
        "type": "t_mapping(t_address,t_bool)"
      }
    ],
    "types": {
      "t_address": {
        "encoding": "inplace",
        "label": "address",
        "numberOfBytes": "20"
      },
      "t_bool": {
        "encoding": "inplace",
        "label": "bool",
        "numberOfBytes": "1"
      },
      "t_mapping(t_address,t_bool)": {
        "encoding": "mapping",
        "key": "t_address",
        "label": "mapping(address => bool)",
        "numberOfBytes": "32",
        "value": "t_bool"
      }
    }
  }
}