{
  "address": "0x5F30568b229215B4b7618E1D410d5F9B61B00E73",
  "abi": [
    {
      "anonymous": false,
      "inputs": [
        {
          "indexed": true,
          "internalType": "address",
          "name": "payer",
          "type": "address"
        },
        {
          "indexed": true,
          "internalType": "address",
          "name": "payee",
          "type": "address"
        },
        {
          "indexed": false,
          "internalType": "uint256",
          "name": "amount",
          "type": "uint256"
        },
        {
          "indexed": false,
          "internalType": "uint256",
          "name": "shipmentId",
          "type": "uint256"
        }
      ],
      "name": "PaymentMade",
      "type": "event"
    },
    {
      "inputs": [
        {
          "internalType": "uint256",
          "name": "_shipmentId",
          "type": "uint256"
        },
        {
          "internalType": "address payable",
          "name": "_supplier",
          "type": "address"
        },
        {
          "internalType": "address",
          "name": "_retailer",
          "type": "address"
        }
      ],
      "name": "confirmDeliveryAndPay",
      "outputs": [],
      "stateMutability": "payable",
      "type": "function"
    }
  ],
  "transactionHash": "0xbbcdd40571cf57c4b2a080db4f19af80ded4ee2c4950b7946df5d56956246d91",
  "args": [],
  "numDeployments": 1,
  "solcInputHash": "bb7bc85ff8dfd589c7a69bd23c557650",
  "bytecode": "0x608060405234801561001057600080fd5b506101c0806100206000396000f3fe60806040526004361061001e5760003560e01c8063ed75ac9414610023575b600080fd5b610036610031366004610148565b610038565b005b6000341161009f5760405162461bcd60e51b815260206004820152602a60248201527f5061796d656e7420616d6f756e742073686f756c642062652067726561746572604482015269207468616e207a65726f60b01b606482015260840160405180910390fd5b6040516001600160a01b038316903480156108fc02916000818181858888f193505050501580156100d4573d6000803e3d6000fd5b50816001600160a01b0316816001600160a01b03167f1f004c54eef332ef6912dae8f1775c102da23bec79ccf602eaaa072938e96b673486604051610123929190918252602082015260400190565b60405180910390a3505050565b6001600160a01b038116811461014557600080fd5b50565b60008060006060848603121561015d57600080fd5b83359250602084013561016f81610130565b9150604084013561017f81610130565b80915050925092509256fea26469706673582212203f8c67634617f428adbe95522f04d0085919b13354af80db6562530872b4dad964736f6c63430008110033",
  "devdoc": {
    "kind": "dev",
    "methods": {},
    "version": 1
  },
  "userdoc": {
    "kind": "user",
    "methods": {},
    "version": 1
  },
  "storageLayout": {
    "storage": [],
    "types": null
  }
}