{
  "address": "0xFC81921dA0B6F29CE7Deb79dd820fa66aef7c610",
  "abi": [
    {
      "anonymous": false,
      "inputs": [
        {
          "indexed": true,
          "internalType": "address",
          "name": "user",
          "type": "address"
        },
        {
          "indexed": false,
          "internalType": "string",
          "name": "role",
          "type": "string"
        }
      ],
      "name": "RoleAssigned",
      "type": "event"
    },
    {
      "inputs": [
        {
          "internalType": "address",
          "name": "_user",
          "type": "address"
        },
        {
          "internalType": "string",
          "name": "_role",
          "type": "string"
        }
      ],
      "name": "assignRole",
      "outputs": [],
      "stateMutability": "nonpayable",
      "type": "function"
    },
    {
      "inputs": [
        {
          "internalType": "address",
          "name": "_user",
          "type": "address"
        }
      ],
      "name": "getRole",
      "outputs": [
        {
          "internalType": "string",
          "name": "",
          "type": "string"
        }
      ],
      "stateMutability": "view",
      "type": "function"
    },
    {
      "inputs": [
        {
          "internalType": "address",
          "name": "",
          "type": "address"
        }
      ],
      "name": "roles",
      "outputs": [
        {
          "internalType": "string",
          "name": "",
          "type": "string"
        }
      ],
      "stateMutability": "view",
      "type": "function"
    }
  ],
  "transactionHash": "0x662588aa65ae17d184e3faceb99a1c132ccf58cea3ddc600d993d23353584056",
  "args": [],
  "numDeployments": 1,
  "solcInputHash": "bb7bc85ff8dfd589c7a69bd23c557650",
  "bytecode": "0x608060405234801561001057600080fd5b50610528806100206000396000f3fe608060405234801561001057600080fd5b50600436106100415760003560e01c80634427673314610046578063993746421461006f578063b7dfcbee14610082575b600080fd5b610059610054366004610261565b610097565b6040516100669190610283565b60405180910390f35b61005961007d366004610261565b610143565b6100956100903660046102e7565b6101dd565b005b6001600160a01b03811660009081526020819052604090208054606091906100be906103a9565b80601f01602080910402602001604051908101604052809291908181526020018280546100ea906103a9565b80156101375780601f1061010c57610100808354040283529160200191610137565b820191906000526020600020905b81548152906001019060200180831161011a57829003601f168201915b50505050509050919050565b6000602081905290815260409020805461015c906103a9565b80601f0160208091040260200160405190810160405280929190818152602001828054610188906103a9565b80156101d55780601f106101aa576101008083540402835291602001916101d5565b820191906000526020600020905b8154815290600101906020018083116101b857829003601f168201915b505050505081565b6001600160a01b03821660009081526020819052604090206101ff8282610432565b50816001600160a01b03167f3565795c2fb8842c21347d277937778bbcfe788b5b4f790fc5e408786cbe9c90826040516102399190610283565b60405180910390a25050565b80356001600160a01b038116811461025c57600080fd5b919050565b60006020828403121561027357600080fd5b61027c82610245565b9392505050565b600060208083528351808285015260005b818110156102b057858101830151858201604001528201610294565b506000604082860101526040601f19601f8301168501019250505092915050565b634e487b7160e01b600052604160045260246000fd5b600080604083850312156102fa57600080fd5b61030383610245565b9150602083013567ffffffffffffffff8082111561032057600080fd5b818501915085601f83011261033457600080fd5b813581811115610346576103466102d1565b604051601f8201601f19908116603f0116810190838211818310171561036e5761036e6102d1565b8160405282815288602084870101111561038757600080fd5b8260208601602083013760006020848301015280955050505050509250929050565b600181811c908216806103bd57607f821691505b6020821081036103dd57634e487b7160e01b600052602260045260246000fd5b50919050565b601f82111561042d57600081815260208120601f850160051c8101602086101561040a5750805b601f850160051c820191505b8181101561042957828155600101610416565b5050505b505050565b815167ffffffffffffffff81111561044c5761044c6102d1565b6104608161045a84546103a9565b846103e3565b602080601f831160018114610495576000841561047d5750858301515b600019600386901b1c1916600185901b178555610429565b600085815260208120601f198616915b828110156104c4578886015182559484019460019091019084016104a5565b50858210156104e25787850151600019600388901b60f8161c191681555b5050505050600190811b0190555056fea26469706673582212200415ded248a97fbbec6bea22d7c180b5aeb8ef0b37dd7599dc8a7483f70f2d4a64736f6c63430008110033",
  "devdoc": {
    "kind": "dev",
    "methods": {},
    "version": 1
  },
  "userdoc": {
    "kind": "user",
    "methods": {},
    "version": 1
  },
  "storageLayout": {
    "storage": [
      {
        "astId": 315,
        "contract": "contracts/RoleManagement.sol:RoleManagement",
        "label": "roles",
        "offset": 0,
        "slot": "0",
        "type": "t_mapping(t_address,t_string_storage)"
      }
    ],
    "types": {
      "t_address": {
        "encoding": "inplace",
        "label": "address",
        "numberOfBytes": "20"
      },
      "t_mapping(t_address,t_string_storage)": {
        "encoding": "mapping",
        "key": "t_address",
        "label": "mapping(address => string)",
        "numberOfBytes": "32",
        "value": "t_string_storage"
      },
      "t_string_storage": {
        "encoding": "bytes",
        "label": "string",
        "numberOfBytes": "32"
      }
    }
  }
}